{
  "contractName": "DecentralBank",
  "abi": [
    {
      "inputs": [
        {
          "internalType": "contract Zamp",
          "name": "_zamp",
          "type": "address"
        },
        {
          "internalType": "contract stkZamp",
          "name": "_stkzamp",
          "type": "address"
        }
      ],
      "stateMutability": "nonpayable",
      "type": "constructor"
    },
    {
      "inputs": [
        {
          "internalType": "address",
          "name": "",
          "type": "address"
        }
      ],
      "name": "hasStaked",
      "outputs": [
        {
          "internalType": "bool",
          "name": "",
          "type": "bool"
        }
      ],
      "stateMutability": "view",
      "type": "function"
    },
    {
      "inputs": [
        {
          "internalType": "address",
          "name": "",
          "type": "address"
        }
      ],
      "name": "isStaking",
      "outputs": [
        {
          "internalType": "bool",
          "name": "",
          "type": "bool"
        }
      ],
      "stateMutability": "view",
      "type": "function"
    },
    {
      "inputs": [],
      "name": "name",
      "outputs": [
        {
          "internalType": "string",
          "name": "",
          "type": "string"
        }
      ],
      "stateMutability": "view",
      "type": "function"
    },
    {
      "inputs": [],
      "name": "owner",
      "outputs": [
        {
          "internalType": "address",
          "name": "",
          "type": "address"
        }
      ],
      "stateMutability": "view",
      "type": "function"
    },
    {
      "inputs": [
        {
          "internalType": "uint256",
          "name": "",
          "type": "uint256"
        }
      ],
      "name": "stakers",
      "outputs": [
        {
          "internalType": "address",
          "name": "",
          "type": "address"
        }
      ],
      "stateMutability": "view",
      "type": "function"
    },
    {
      "inputs": [
        {
          "internalType": "address",
          "name": "",
          "type": "address"
        }
      ],
      "name": "stakingBalance",
      "outputs": [
        {
          "internalType": "uint256",
          "name": "",
          "type": "uint256"
        }
      ],
      "stateMutability": "view",
      "type": "function"
    },
    {
      "inputs": [],
      "name": "stkzamp",
      "outputs": [
        {
          "internalType": "contract stkZamp",
          "name": "",
          "type": "address"
        }
      ],
      "stateMutability": "view",
      "type": "function"
    },
    {
      "inputs": [],
      "name": "zamp",
      "outputs": [
        {
          "internalType": "contract Zamp",
          "name": "",
          "type": "address"
        }
      ],
      "stateMutability": "view",
      "type": "function"
    },
    {
      "inputs": [
        {
          "internalType": "uint256",
          "name": "_amount",
          "type": "uint256"
        }
      ],
      "name": "depositTokens",
      "outputs": [],
      "stateMutability": "nonpayable",
      "type": "function"
    },
    {
      "inputs": [],
      "name": "issueTokens",
      "outputs": [],
      "stateMutability": "nonpayable",
      "type": "function"
    },
    {
      "inputs": [],
      "name": "claim",
      "outputs": [],
      "stateMutability": "nonpayable",
      "type": "function"
    }
  ],
  "bytecode": "0x60806040526040518060400160405280600e81526020017f446563656e7472616c2042616e6b00000000000000000000000000000000000081525060009080519060200190620000519291906200010f565b503480156200005f57600080fd5b506040516200148738038062001487833981810160405281019062000085919062000282565b81600260006101000a81548173ffffffffffffffffffffffffffffffffffffffff021916908373ffffffffffffffffffffffffffffffffffffffff16021790555080600360006101000a81548173ffffffffffffffffffffffffffffffffffffffff021916908373ffffffffffffffffffffffffffffffffffffffff16021790555050506200032d565b8280546200011d90620002f8565b90600052602060002090601f0160209004810192826200014157600085556200018d565b82601f106200015c57805160ff19168380011785556200018d565b828001600101855582156200018d579182015b828111156200018c5782518255916020019190600101906200016f565b5b5090506200019c9190620001a0565b5090565b5b80821115620001bb576000816000905550600101620001a1565b5090565b600080fd5b600073ffffffffffffffffffffffffffffffffffffffff82169050919050565b6000620001f182620001c4565b9050919050565b60006200020582620001e4565b9050919050565b6200021781620001f8565b81146200022357600080fd5b50565b60008151905062000237816200020c565b92915050565b60006200024a82620001e4565b9050919050565b6200025c816200023d565b81146200026857600080fd5b50565b6000815190506200027c8162000251565b92915050565b600080604083850312156200029c576200029b620001bf565b5b6000620002ac8582860162000226565b9250506020620002bf858286016200026b565b9150509250929050565b7f4e487b7100000000000000000000000000000000000000000000000000000000600052602260045260246000fd5b600060028204905060018216806200031157607f821691505b602082108103620003275762000326620002c9565b5b50919050565b61114a806200033d6000396000f3fe608060405234801561001057600080fd5b50600436106100a95760003560e01c80636f69bd3d116100715780636f69bd3d146101405780638da5cb5b1461015e578063c93c8f341461017c578063d04f94ea146101ac578063dd49756e146101ca578063fd5e6dd1146101e6576100a9565b806306fdde03146100ae57806345bc78ab146100cc5780634e71d92d146100fc57806360ab5852146101065780636f49712b14610110575b600080fd5b6100b6610216565b6040516100c39190610ae0565b60405180910390f35b6100e660048036038101906100e19190610b65565b6102a4565b6040516100f39190610bab565b60405180910390f35b6101046102bc565b005b61010e610484565b005b61012a60048036038101906101259190610b65565b61067a565b6040516101379190610be1565b60405180910390f35b61014861069a565b6040516101559190610c5b565b60405180910390f35b6101666106c0565b6040516101739190610c85565b60405180910390f35b61019660048036038101906101919190610b65565b6106e6565b6040516101a39190610be1565b60405180910390f35b6101b4610706565b6040516101c19190610cc1565b60405180910390f35b6101e460048036038101906101df9190610d08565b61072c565b005b61020060048036038101906101fb9190610d08565b610a08565b60405161020d9190610c85565b60405180910390f35b6000805461022390610d64565b80601f016020809104026020016040519081016040528092919081815260200182805461024f90610d64565b801561029c5780601f106102715761010080835404028352916020019161029c565b820191906000526020600020905b81548152906001019060200180831161027f57829003601f168201915b505050505081565b60056020528060005260406000206000915090505481565b6000600560003373ffffffffffffffffffffffffffffffffffffffff1673ffffffffffffffffffffffffffffffffffffffff16815260200190815260200160002054905060008111610343576040517f08c379a000000000000000000000000000000000000000000000000000000000815260040161033a90610e07565b60405180910390fd5b600260009054906101000a900473ffffffffffffffffffffffffffffffffffffffff1673ffffffffffffffffffffffffffffffffffffffff1663a9059cbb33836040518363ffffffff1660e01b81526004016103a0929190610e27565b6020604051808303816000875af11580156103bf573d6000803e3d6000fd5b505050506040513d601f19601f820116820180604052508101906103e39190610e7c565b506000600560003373ffffffffffffffffffffffffffffffffffffffff1673ffffffffffffffffffffffffffffffffffffffff168152602001908152602001600020819055506000600760003373ffffffffffffffffffffffffffffffffffffffff1673ffffffffffffffffffffffffffffffffffffffff16815260200190815260200160002060006101000a81548160ff02191690831515021790555050565b600160009054906101000a900473ffffffffffffffffffffffffffffffffffffffff1673ffffffffffffffffffffffffffffffffffffffff163373ffffffffffffffffffffffffffffffffffffffff1614610514576040517f08c379a000000000000000000000000000000000000000000000000000000000815260040161050b90610ef5565b60405180910390fd5b60005b6004805490508110156106775760006004828154811061053a57610539610f15565b5b9060005260206000200160009054906101000a900473ffffffffffffffffffffffffffffffffffffffff16905060006009600560008473ffffffffffffffffffffffffffffffffffffffff1673ffffffffffffffffffffffffffffffffffffffff168152602001908152602001600020546105b59190610fa2565b9050600081111561066257600360009054906101000a900473ffffffffffffffffffffffffffffffffffffffff1673ffffffffffffffffffffffffffffffffffffffff1663a9059cbb83836040518363ffffffff1660e01b815260040161061d929190610e27565b6020604051808303816000875af115801561063c573d6000803e3d6000fd5b505050506040513d601f19601f820116820180604052508101906106609190610e7c565b505b5050808061066f90610fd3565b915050610517565b50565b60076020528060005260406000206000915054906101000a900460ff1681565b600360009054906101000a900473ffffffffffffffffffffffffffffffffffffffff1681565b600160009054906101000a900473ffffffffffffffffffffffffffffffffffffffff1681565b60066020528060005260406000206000915054906101000a900460ff1681565b600260009054906101000a900473ffffffffffffffffffffffffffffffffffffffff1681565b6000811161076f576040517f08c379a000000000000000000000000000000000000000000000000000000000815260040161076690611067565b60405180910390fd5b600260009054906101000a900473ffffffffffffffffffffffffffffffffffffffff1673ffffffffffffffffffffffffffffffffffffffff166323b872dd3330846040518463ffffffff1660e01b81526004016107ce93929190611087565b6020604051808303816000875af11580156107ed573d6000803e3d6000fd5b505050506040513d601f19601f820116820180604052508101906108119190610e7c565b5080600560003373ffffffffffffffffffffffffffffffffffffffff1673ffffffffffffffffffffffffffffffffffffffff1681526020019081526020016000205461085d91906110be565b600560003373ffffffffffffffffffffffffffffffffffffffff1673ffffffffffffffffffffffffffffffffffffffff16815260200190815260200160002081905550600660003373ffffffffffffffffffffffffffffffffffffffff1673ffffffffffffffffffffffffffffffffffffffff16815260200190815260200160002060009054906101000a900460ff16610955576004339080600181540180825580915050600190039060005260206000200160009091909190916101000a81548173ffffffffffffffffffffffffffffffffffffffff021916908373ffffffffffffffffffffffffffffffffffffffff1602179055505b6001600760003373ffffffffffffffffffffffffffffffffffffffff1673ffffffffffffffffffffffffffffffffffffffff16815260200190815260200160002060006101000a81548160ff0219169083151502179055506001600660003373ffffffffffffffffffffffffffffffffffffffff1673ffffffffffffffffffffffffffffffffffffffff16815260200190815260200160002060006101000a81548160ff02191690831515021790555050565b60048181548110610a1857600080fd5b906000526020600020016000915054906101000a900473ffffffffffffffffffffffffffffffffffffffff1681565b600081519050919050565b600082825260208201905092915050565b60005b83811015610a81578082015181840152602081019050610a66565b83811115610a90576000848401525b50505050565b6000601f19601f8301169050919050565b6000610ab282610a47565b610abc8185610a52565b9350610acc818560208601610a63565b610ad581610a96565b840191505092915050565b60006020820190508181036000830152610afa8184610aa7565b905092915050565b600080fd5b600073ffffffffffffffffffffffffffffffffffffffff82169050919050565b6000610b3282610b07565b9050919050565b610b4281610b27565b8114610b4d57600080fd5b50565b600081359050610b5f81610b39565b92915050565b600060208284031215610b7b57610b7a610b02565b5b6000610b8984828501610b50565b91505092915050565b6000819050919050565b610ba581610b92565b82525050565b6000602082019050610bc06000830184610b9c565b92915050565b60008115159050919050565b610bdb81610bc6565b82525050565b6000602082019050610bf66000830184610bd2565b92915050565b6000819050919050565b6000610c21610c1c610c1784610b07565b610bfc565b610b07565b9050919050565b6000610c3382610c06565b9050919050565b6000610c4582610c28565b9050919050565b610c5581610c3a565b82525050565b6000602082019050610c706000830184610c4c565b92915050565b610c7f81610b27565b82525050565b6000602082019050610c9a6000830184610c76565b92915050565b6000610cab82610c28565b9050919050565b610cbb81610ca0565b82525050565b6000602082019050610cd66000830184610cb2565b92915050565b610ce581610b92565b8114610cf057600080fd5b50565b600081359050610d0281610cdc565b92915050565b600060208284031215610d1e57610d1d610b02565b5b6000610d2c84828501610cf3565b91505092915050565b7f4e487b7100000000000000000000000000000000000000000000000000000000600052602260045260246000fd5b60006002820490506001821680610d7c57607f821691505b602082108103610d8f57610d8e610d35565b5b50919050565b7f7374616b696e672062616c616e63652063616e6e6f74206265206c657373207460008201527f68616e207a65726f000000000000000000000000000000000000000000000000602082015250565b6000610df1602883610a52565b9150610dfc82610d95565b604082019050919050565b60006020820190508181036000830152610e2081610de4565b9050919050565b6000604082019050610e3c6000830185610c76565b610e496020830184610b9c565b9392505050565b610e5981610bc6565b8114610e6457600080fd5b50565b600081519050610e7681610e50565b92915050565b600060208284031215610e9257610e91610b02565b5b6000610ea084828501610e67565b91505092915050565b7f6f6e6c79206f776e65722063616e206973737565207265776172647300000000600082015250565b6000610edf601c83610a52565b9150610eea82610ea9565b602082019050919050565b60006020820190508181036000830152610f0e81610ed2565b9050919050565b7f4e487b7100000000000000000000000000000000000000000000000000000000600052603260045260246000fd5b7f4e487b7100000000000000000000000000000000000000000000000000000000600052601260045260246000fd5b7f4e487b7100000000000000000000000000000000000000000000000000000000600052601160045260246000fd5b6000610fad82610b92565b9150610fb883610b92565b925082610fc857610fc7610f44565b5b828204905092915050565b6000610fde82610b92565b91507fffffffffffffffffffffffffffffffffffffffffffffffffffffffffffffffff82036110105761100f610f73565b5b600182019050919050565b7f616d6f756e742063616e6e6f74206265207a65726f0000000000000000000000600082015250565b6000611051601583610a52565b915061105c8261101b565b602082019050919050565b6000602082019050818103600083015261108081611044565b9050919050565b600060608201905061109c6000830186610c76565b6110a96020830185610c76565b6110b66040830184610b9c565b949350505050565b60006110c982610b92565b91506110d483610b92565b9250827fffffffffffffffffffffffffffffffffffffffffffffffffffffffffffffffff0382111561110957611108610f73565b5b82820190509291505056fea264697066735822122004b83fca4c42a0d9ee0c196df0363492d79824d28dc0fad32a68743fecf95fb164736f6c634300080d0033",
  "immutableReferences": {},
  "source": "// SPDX-License-Identifier: MIT\r\npragma solidity ^0.8.0;\r\n\r\nimport './stkZamp.sol';\r\nimport './Zamp.sol';\r\n\r\ncontract DecentralBank {\r\n    string public name = 'Decentral Bank';\r\n    address public owner;\r\n\r\n    Zamp public zamp;\r\n    stkZamp public stkzamp;\r\n\r\n    constructor(Zamp _zamp, stkZamp _stkzamp) {\r\n        zamp = _zamp;\r\n        stkzamp = _stkzamp;\r\n    }\r\n\r\n    address[] public stakers;\r\n    mapping(address => uint) public stakingBalance;\r\n    mapping(address => bool) public hasStaked;\r\n    mapping(address => bool) public isStaking;\r\n\r\n    //staking functions\r\n    function depositTokens(uint _amount) public {\r\n        //require Staking amount cannot be Zero\r\n        require(_amount>0, 'amount cannot be zero');\r\n\r\n        // Transfer zamp tokens to this contract address for staking\r\n        zamp.transferFrom(msg.sender, address(this), _amount);\r\n    \r\n        //update Staking Balance\r\n        stakingBalance[msg.sender] = stakingBalance[msg.sender] +_amount;\r\n\r\n        if(!hasStaked[msg.sender]){\r\n            stakers.push(msg.sender);\r\n        }\r\n\r\n        //Update Staking Balance\r\n\r\n        isStaking[msg.sender] = true;\r\n        hasStaked[msg.sender] = true;\r\n\r\n    }\r\n\r\n    function issueTokens() public {\r\n\r\n        require(msg.sender == owner, 'only owner can issue rewards');\r\n\r\n        for(uint i=0; i<stakers.length; i++){\r\n            address recipient = stakers[i];\r\n            uint balance = stakingBalance[recipient]/9; // div by 9 to create percentage incentives\r\n            if(balance>0){\r\n                stkzamp.transfer(recipient, balance);\r\n            }\r\n        }\r\n    }\r\n\r\n    function claim() public {\r\n\r\n        uint balance = stakingBalance[msg.sender];\r\n        \r\n\r\n        require(balance>0 , 'staking balance cannot be less than zero');\r\n\r\n        //transfer the tokens to the specified address from contract\r\n        zamp.transfer(msg.sender, balance);\r\n        \r\n        // reset the staking balance\r\n        stakingBalance[msg.sender] =0;\r\n\r\n        //update the Staking status\r\n        isStaking[msg.sender] = false;\r\n\r\n    }\r\n\r\n}",
  "sourcePath": "D:\\liquid_staking\\src\\contracts\\DecentralBank.sol",
  "compiler": {
    "name": "solc",
    "version": "0.8.13+commit.abaa5c0e.Emscripten.clang"
  },
  "schemaVersion": "3.4.7",
  "updatedAt": "2022-05-07T10:18:18.756Z",
  "devdoc": {
    "kind": "dev",
    "methods": {},
    "version": 1
  },
  "userdoc": {
    "kind": "user",
    "methods": {},
    "version": 1
  }
}